:020000040000FA
:10000000803102288731E52F6434F4007408F2004F
:100010007208F3000F280130F2007208F407740828
:100020008600013087000108031D172818280B28B7
:1000300073087402F000F101F01BF1030800F200F4
:1000400040010D130D167208F0000730F036890BD1
:10005000262870080139F100F10CF10C0E08710628
:100060007F3971068E007208F0000630F036890B79
:10007000362870080139F100F10EF10DF10D0E086E
:100080007106BF3971068E007208F0000530F03637
:10009000890B472870080139F100F10EF10D0E08A7
:1000A0007106DF3971068E007208F0000430F036F8
:1000B000890B572870080139F100F10E0E087106FE
:1000C000EF3971068E000330890B6428000040016F
:1000D0000D17000040010D137208F0000330F036D8
:1000E000890B6F2870080139F100F10CF10C0E0832
:1000F00071067F3971068E007208F0000230F0360A
:10010000890B7F2870080139F100F10EF10DF10D16
:100110000E087106BF3971068E0072360139F00083
:10012000F00EF00D0E087006DF3970068E007208B2
:100130000139F000F00E0E087006EF3970068E00DF
:100140000330890BA128000040010D170000400179
:100150000D130000C43000320032890BAB2800328E
:1001600000000800F2012830860000308700473F79
:10017000F000F01FBC28BD28DE284001A809A9090D
:10018000AA09AB09AC09AD09AE09AF09A80A031D5C
:10019000DC28A90A031DDC28AA0A031DDC28AB0AF7
:1001A000031DDC28AC0A031DDC28AD0A031DDC2876
:1001B000AE0A031DDC28AF0AF201F20A20308600E5
:1001C00000308700473FF000F01FE728E8280729A4
:1001D0004001A009A109A209A309A409A509A6092A
:1001E000A709A00A031D0729A10A031D0729A20ABE
:1001F000031D0729A30A031D0729A40A031D0729B4
:10020000A50A031D0729A60A031D0729A70A4001FD
:10021000200821042204230424042504260427049E
:100220000319132914296729F101F10A2329A0359B
:10023000A10DA20DA30DA40DA50DA60DA70D0130B6
:10024000F0007008F107A71F26292729172927087A
:100250002F02031D452926082E02031D45292508C6
:100260002D02031D452924082C02031D45292308BE
:100270002B02031D452922082A02031D45292108B6
:100280002902031D452920082802031C4829492961
:1002900059292008A8022108A93B2208AA3B2308C3
:1002A000AB3B2408AC3B2508AD3B2608AE3B2708FA
:1002B000AF3BA736A60CA50CA40CA30CA20CA10C5A
:1002C000A00C0130F102031D662967292729720855
:1002D00003196B296C298A29A809A909AA09AB095C
:1002E000AC09AD09AE09AF09A80A031D8A29A90AFC
:1002F000031D8A29AA0A031D8A29AB0A031D8A291C
:10030000AC0A031D8A29AD0A031D8A29AE0A031D02
:100310008A29AF0A40012808A0002908A1002A085C
:10032000A2002B08A3002C08A4002D08A5002E086D
:10033000A6002F08A7000800F20120308600003038
:100340008700473FF000F01FA629A729C8294001D0
:10035000A009A109A209A309A409A509A609A70939
:10036000A00A031DC629A10A031DC629A20A031D4E
:10037000C629A30A031DC629A40A031DC629A50A66
:10038000031DC629A60A031DC629A70AF201F20AFF
:100390002830860000308700473FF000F01FD12949
:1003A000D229F5294001A809A909AA09AB09AC0974
:1003B000AD09AE09AF09A80A031DF129A90A031D59
:1003C000F129AA0A031DF129AB0A031DF129AC0A80
:1003D000031DF129AD0A031DF129AE0A031DF12900
:1003E000AF0A0130F0007008F2067330860000306A
:1003F00087000830F00000301E00F00BFC2940019F
:1004000020082104220423042404250426042704AC
:1004100003190B2A0C2A682AF101F10A1B2AA035BC
:10042000A10DA20DA30DA40DA50DA60DA70D0130C4
:10043000F0007008F107A71F1E2A1F2A0F2AF335A4
:10044000F40DF50DF60DF70DF80DF90DFA0D270861
:100450002F02031D452A26082E02031D452A2508C2
:100460002D02031D452A24082C02031D452A2308BA
:100470002B02031D452A22082A02031D452A2108B2
:100480002902031D452A20082802031C482A492A5C
:100490005A2A2008A8022108A93B2208AA3B2308BF
:1004A000AB3B2408AC3B2508AD3B2608AE3B2708F8
:1004B000AF3B7314A736A60CA50CA40CA30CA20C7E
:1004C000A10CA00C0130F102031D672A682A1F2A23
:1004D000720803196C2A6D2A8B2AF309F409F509AD
:1004E000F609F709F809F909FA09F30A031D8B2A35
:1004F000F40A031D8B2AF50A031D8B2AF60A031D35
:100500008B2AF70A031D8B2AF80A031D8B2AF90A86
:10051000031D8B2AFA0A73084001A0007408A10089
:100520007508A2007608A3007708A4007808A50043
:100530007908A6007A08A70008004001BD0030082D
:10054000C4003108C5003208C6003308C7003408AB
:10055000C8003508C9003608CA003708CB00443047
:10056000860000308700473FB800B81BB82ABA2A77
:100570000130BB2A00304001B900BA013908C2007D
:100580003A08C300420843040319C72AC82AE62AC6
:10059000C409C509C609C709C809C909CA09CB09D7
:1005A000C40A031DE62AC50A031DE62AC60A031D5E
:1005B000E62AC70A031DE62AC80A031DE62AC90A55
:1005C000031DE62ACA0A031DE62ACB0A4101A51B20
:1005D000EA2AEB2AF02AFD304001EE05FF30EF0554
:1005E00041012508803A4001B80080303802031DDF
:1005F000FC2A0130410124020318FF2A002B062B9C
:1006000001304001BE000030BF000E2B4101250823
:100610004001BF00410124084001BE004101230800
:100620004001C100410122084001C00042084304CA
:10063000031D1B2B1C2B202B6E1D1F2B202B242B53
:10064000FF30C007FF30C13D1F30CC000030CD006F
:100650004201BF01942BFF304001CC07FF30CD3D5C
:100660000A30A000A101A201A301A401A501A601D5
:10067000A7014408A8004508A9004608AA004708A1
:10068000AB004808AC004908AD004A08AE004B0872
:10069000AF008031B220823140012108F4002008EF
:1006A000F3008C315E2482317308303E4001B80083
:1006B0004C08203E86000130870038088100FF305A
:1006C000BE07FF30BF3DFF30C007FF30C13D0A30DD
:1006D000A000A101A201A301A401A501A601A701F7
:1006E0004408A8004508A9004608AA004708AB002E
:1006F0004808AC004908AD004A08AE004B08AF00FE
:1007000081319C21823140012008C4002108C500AC
:100710002208C6002308C7002408C8002508C9000D
:100720002608CA002708CB0040014D08803AB800CF
:1007300080303802031D9E2B01304C02031CA12B7C
:10074000A22BCF2B4001440845044604470448042B
:1007500049044A044B04031DAE2BAF2B2B2B3F083F
:10076000803AB80080303802031DB82B01303E02B9
:100770000318BB2BBC2B2B2B40014108803AB8003F
:1007800080303802031DC62B01304002031CC92BE8
:10079000CA2BCF2B4001EE18CE2BCF2B2B2B400199
:1007A00042084304031DD52BD62BDA2B6E1DD92B03
:1007B000DA2BF62BFF30CC07FF30CD3D4208430447
:1007C000031DE32BE42BE92B2B30BB000030BC00D6
:1007D000ED2B2D30BB000030BC003B08B8004C08AE
:1007E000203E860001308700380881004C08203EFA
:1007F000B8003808A4004108A6004008A5003D083C
:100800008D31AF25823140012508B1002408B000A8
:1008100008008C3178248431400118158E3105266A
:10082000843101308E31912684310C308E31912605
:1008300084310E308E31912684314101CF01D001B7
:100840000030CA000030CB000030CC0040010C1A50
:100850002A2C2B2C702CA3304001EC005530890B36
:100860002F2CEC0B2F2C40010C1E372C382C702C0D
:100870004101A60101308E3191268431873040013B
:10088000E6008830E7000030E800E900A7308C314E
:1008900099248431F301A7304001EC006C08F40086
:1008A00001308D31172584319E304001E6008830BB
:1008B000E700410155084001EC00ED016C08E8003B
:1008C0006D08E900A7308C3199248431F301A730F9
:1008D0004001EC006C08F40002308D3117258431A2
:1008E0004101260855020318762C772C7A2C4001FA
:1008F0001811B22C40011815B22C01304101CA0761
:10090000003003180130CB07003003180130CC074A
:1009100030304A06753003194B064C04031D912CE8
:10092000922CB22C0030CA000030CB000030CC003A
:1009300001308E31912684316D304001E6008830DF
:10094000E700A7308C3199248431F301A7304001AE
:10095000EC006C08F40001308D31172584318531AD
:10096000EA25843140010C1EB62CB72C7D2C0030BA
:100970004101CA000030CB000030CC0040018D1A8C
:10098000C22CC32CD82C410153085404031DC92C7C
:10099000CA2CD82C4F085004031DCF2CD02CD82C97
:1009A0000130D3000030D4000130CD000030CE0043
:1009B00040018D1BDC2CDD2CE82C41015303540439
:1009C000031DE32CE42CE82C0130CF000030D000D4
:1009D00040018D1FEC2CED2C4C2D8D1EF02CF12C9C
:1009E0004C2D410153035404031DF72CF82C4C2DBE
:1009F0004F035004031DFD2CFE2C4C2D2608031D17
:100A0000022D032D052DA601072D0130A602013070
:100A10008E31912684315F304001E6008830E70056
:100A2000410126084001EC00ED016C08E8006D086A
:100A3000E900A7308C3199248431F301A7304001BB
:100A4000EC006C08F40001308D31172584317B30C7
:100A50004001E6008830E700410155084001EC0004
:100A6000ED016C08E8006D08E900A7308C3199248D
:100A70008431F301A7304001EC006C08F40002302F
:100A80008D31172584314101D301D401CF01D0012B
:100A9000CD01CE01D101D20140018D1B502D512D30
:100AA000662D410151085204031D572D582D662D06
:100AB0004D084E04031D5D2D5E2D662D0130D100C5
:100AC0000030D2000130CF000030D00040018D1A3C
:100AD0006A2D6B2D762D410151035204031D712D9A
:100AE000722D762D0130CD000030CE0040018D1FDB
:100AF0007A2D7B2D262C8D1E7E2D7F2D262C4101BF
:100B000051035204031D852D862D262C4D034E04C2
:100B1000031D8B2D8C2D262C260A031D902D912D27
:100B2000982DFF304001EC006C084101A6009E2D7D
:100B300001304001EC006C084101A60701308E3104
:100B4000912684310E308E3191268431503040010F
:100B5000E6008830E700410126084001EC00ED0185
:100B60006C08E8006D08E900A7308C3199248431C5
:100B7000F301A7304001EC006C08F40001308D3126
:100B8000172584317B304001E6008830E7004101C1
:100B900055084001EC00ED016C08E8006D08E90023
:100BA000A7308C3199248431F301A7304001EC0047
:100BB0006C08F40002308D31172584314101D101D8
:100BC000D201CD01CE01CF01D001D301D401262C19
:100BD0008031022800304101C4000030C5000030DF
:100BE000C600C701C801C90140010C1AF82DF92D32
:100BF000AB2F02304001EB004530EA00A930890BF1
:100C0000FF2DEA0BFF2DEB0BFF2D003240010C1ED8
:100C10000A2E0B2EAB2F410147080319102E122E5E
:100C20000130132E00304001EA006A084101C7007C
:100C3000470803191C2E1D2E482E01308E31912697
:100C400085316D304001E6008830E700A7308C31F7
:100C500099248531F301A7304001EA006A08F400C5
:100C600001308D311725853122304001E600883072
:100C7000E700A7308C3199248531F301A73040017A
:100C8000EA006A08F40002308D3117258531AB2F58
:100C900001308E31912685316D304001E60088307B
:100CA000E700A7308C3199248531F301A73040014A
:100CB000EA006A08F40001308D31172585311130C2
:100CC0004001E6008830E700A7308C319924853157
:100CD000F301A7304001EA006A08F40002308D31C8
:100CE00017258531AB2F01304101C40700300318AF
:100CF0000130C507003003180130C607263044060E
:100D00006A30031945064604031D872E882E9F2F3F
:100D10000030C4000030C5000030C60001308E3104
:100D20009126853132304001E6008830E700A73057
:100D30008C3199248531F301A7304001EA006A081B
:100D4000F40001308D311725853100304001E60077
:100D50008830E700A7308C3199248531F301A73022
:100D60004001EA006A08F40002308D311725853110
:100D700003304001EB008A30EA005530890BBE2E6B
:100D8000EA0BBE2EEB0BBE2E003240010C1AC92E10
:100D9000CA2E892F02304001EB004530EA00A9300D
:100DA000890BD02EEA0BD02EEB0BD02E0032400157
:100DB0000C1EDB2EDC2E892F41014703031DE12E83
:100DC000E22E292F550A031DE62EE72EEE2EFF30C8
:100DD0004001EA006A084101D500F52E55080A3E97
:100DE0004001EA006A084101D50001308E319126A8
:100DF00085316D304001E6008830E700A7308C3146
:100E000099248531F301A7304001EA006A08F40013
:100E100001308D311725853193304001E60088304F
:100E2000E700410155084001EA00EB016A08E800CB
:100E30006B08E900A7308C3199248531F301A73084
:100E40004001EA006A08F40002308D31172585312F
:100E5000892F5508031D2D2F2E2F302FD501372F09
:100E60005508F63E4001EA006A084101D50001300C
:100E70008E31912685316D304001E6008830E700E3
:100E8000A7308C3199248531F301A7304001EA0065
:100E90006A08F40001308D31172585319330400107
:100EA000E6008830E700410155084001EA00EB0107
:100EB0006A08E8006B08E900A7308C319924853175
:100EC000F301A7304001EA006A08F40002308D31D6
:100ED00017258531892F01304101C40700300318DF
:100EE0000130C507003003180130C60763304406DF
:100EF000AE30031945064604031D7F2F802F892F2E
:100F00000130C8000030C90001308E319126853192
:100F10008E2F40010C1E8D2F8E2F6B2F0030410124
:100F2000C4000030C5000030C60048034904031D5A
:100F30009A2F9B2FC52E0230C8000030C900023006
:100F400048064904031DA52FA62FAB2F0330C80068
:100F50000030C900B02F40010C1EAF2FB02F732EF0
:100F600000304101C4000030C5000030C60003302D
:100F700048064904031DBD2FBE2FF42D01308E31CC
:100F80009126853141304001E6008830E700A730E6
:100F90008C3199248531F301A7304001EA006A08B9
:100FA000F40001308D3117258531400118150230CC
:100FB0004001EB004530EA00A930890BDD2FEA0B38
:100FC000DD2FEB0BDD2F00320800410180310420C2
:100FD0008731D5004001EE01EF01A03084000030E0
:100FE00085001B308C31582487312030840001303B
:100FF000850020308C315824873140018431092C00
:101000006C3469346D346934743465342034643438
:1010100065342034613466346F3472346F34203474
:1010200000344F347034653472346134633469345D
:101030006F346E343A34203452346534733474343B
:10104000613400344F347034653472346134633445
:1010500069346F346E343A342034533475346D341B
:1010600061340034453473347434613462346C3424
:1010700065347A3463346134203465346C3420341C
:1010800000344D346F3464346F34203463346F343F
:101090006E347434613464346F3472342034003408
:1010A00063346F346E347434613464346F34723446
:1010B0002034203420342034253464340034633424
:1010C0006F346E347434613464346F347234203469
:1010D0002034203425346434003443346F346E3487
:1010E0006634693467347534723461346334693416
:1010F0006F346E3400346D346134783469346D3457
:101100006F34203420342034253464340034633484
:101110006F346E347434613464346F347234203418
:101120002534643400344D346134783469346D349A
:101130006F343A3420342534643400346D346134EF
:10114000783469346D346F34203425346434003499
:1018AE000800640080010131890B592C0034740842
:1018BE00803AF50080307502031D672C01307302EB
:1018CE0003186A2C6B2C772C7309F5007409F6003B
:1018DE00F50A0319F60A7508F3007608F400772C5A
:1018EE0008004001980199019A0110309200A03031
:1018FE009300043094007E01CE01C301B801043080
:10190E00CF000430BA00C501D0013730BB00FF3024
:10191E00C600FF30D1003F30BC00FF30C700FF30A3
:10192E00D20008004101C3006830FD007D08BD00F3
:10193E004308FD007D08BE00BF01C001C101C20108
:10194E0040016708DF006608DE00BD30FD007D083F
:10195E00E000BE308C31E6248C3141013F08430754
:10196E00FD007D0886008701810108004001A3006B
:10197E00A101A201D52C2008F900FA017908F00086
:10198E007A08F1007808FB007B08F2008D316025A3
:10199E008C3101304001A1070030A23D2108230700
:1019AE00F90079088600013087000108FA007A08EC
:1019BE00A0002008031DE42CE52CC22C08004001D9
:1019CE00E3005F08E5005E08E4004101A001A1010B
:1019DE00042D6430E1006108CE006008E200620868
:1019EE00CF0063088F3123278C3140014E0841010F
:1019FE00A00740014F084101A13D40016408840049
:101A0E00650885001200031D0D2D0E2DF02C4101D1
:101A1E0021084001DF00410120084001DE000800DE
:101A2E00F700312D7308803EF5007508F800472D3C
:101A3E007308C03EF5007508F800472D7308943EF4
:101A4E00F5007508F800472D7308D43EF5007508AB
:101A5E00F800472D7708F500F6017608003A0319CD
:101A6E00392D472D7508013A0319192D033A03191B
:101A7E001F2D013A0319252D073A03192B2D472D3A
:101A8E0078088E3191268D31572D74088600870186
:101A9E00010880311F208D310130F5007508F407E3
:101AAE007408860087010108031D5E2D5F2D4C2DE5
:101ABE00080072080319642D652D6A2D7208031D26
:101ACE00692D6A2D6F2D70088C3157248D31AE2DF6
:101ADE007208033E86008701160001040319782D53
:101AEE00792D962D7208033E86008701403FF30044
:101AFE00413FF400720A86008701403FF500413FE6
:101B0E00F6007608803AF7007408803A7702031DD3
:101B1E00922D730875020318952D962DAE2D700813
:101B2E00F300720886008701720A8400850100089E
:101B3E000107F40074088600870173088100720A99
:101B4E00860087010130810741310318810A0800A0
:101B5E004001AB006E1CB42DB52DBD2D2B08FC0025
:101B6E007C08F80024088C31BD248D314001A61B61
:101B7E00C12DC22DC72D2608AA002508A900C92DE2
:101B8E00A901AA01A701A801DD2D2030F000003027
:101B9E00F10040012B08FC007C08F2008D3160251D
:101BAE008D3101304001A7070030A83D2808803A4A
:101BBE00FC002A08803A7C02031DE72D2908270223
:101BCE00031CEA2DEB2DCC2D40016E18EF2DF02DC0
:101BDE00F82D2B08FC007C08F80024088C31BD245D
:101BEE008D3140012408803105208D3140012908B6
:101BFE007007A4002A08713DA50008004001941347
:101C0E00141394121412131313128E130E138E1226
:101C1E000E120D130D12C43000320032890B132E2A
:101C2E0000320000C43000320032890B1A2E00320E
:101C3E000000C43000320032890B212E0032000029
:101C4E00C43000320032890B282E00320000C4301E
:101C5E0000320032890B2F2E00320000C4300032C9
:101C6E000032890B362E00320000F401F40A4001D6
:101C7E008E130E138E160E160D130D128E130E13CB
:101C8E008E160E160D170D12000040018E130E1338
:101C9E008E160E160D130D12C43000320032890B43
:101CAE00542E003200000130F3007308F4070430A4
:101CBE007402031C632E642E3E2E40018E130E13EF
:101CCE008E160E120D130D128E130E138E160E127D
:101CDE000D170D12000040018E130E138E160E12EC
:101CEE000D130D12C43000320032890B7A2E0032E1
:101CFE00000028308E3191268E3110308E31912693
:101D0E008E3101308E3191268E310F308E319126EB
:101D1E008E310800F20040010D130D127208F00012
:101D2E000730F036890B982E70080139F100F10C4E
:101D3E00F10C0E0871067F3971068E007208F000E4
:101D4E000630F036890BA82E70080139F100F10E1D
:101D5E00F10DF10D0E087106BF3971068E00720875
:101D6E00F0000530F036890BB92E70080139F100FC
:101D7E00F10EF10D0E087106DF3971068E00720834
:101D8E00F0000430F036890BC92E70080139F100CD
:101D9E00F10E0E087106EF3971068E000330890BB5
:101DAE00D62E000040010D17000040010D137208E1
:101DBE00F0000330F036890BE12E70080139F10086
:101DCE00F10CF10C0E0871067F3971068E00720847
:101DDE00F0000230F036890BF12E70080139F10057
:101DEE00F10EF10DF10D0E087106BF3971068E0060
:101DFE0072360139F000F00EF00D0E087006DF3964
:101E0E0070068E0072080139F000F00E0E08700692
:101E1E00EF3970068E000330890B132F000040013E
:101E2E000D17000040010D13C43000320032890B33
:101E3E001C2F0032000008004001DD004E08860015
:101E4E008701403FD000413FD10050088400510827
:101E5E0085001200253A031D352F362FDC2F4E0834
:101E6E00860087010130810741310318810A410143
:101E7E00A201A3014001EE01EF01FF304101A400D8
:101E8E00FF30A50040014E0886008701403FD0007C
:101E9E00413FD10050088400510885001200643A79
:101EAE0003195A2F5B2F6C2F4E0886008701403F77
:101EBE00D000413FD1005008840051088500120027
:101ECE00693A031D6B2F6C2FA72F4E0886008701D2
:101EDE000130810741310318810A4F0886008701BE
:101EEE0001088400850102308107003FD000013FC8
:101EFE00D1005008D5005108D600890D893B8909BB
:101F0E00D700D800D900DA00DB00DC005508B0009D
:101F1E005608B1005708B2005808B3005908B4006B
:101F2E005A08B5005B08B6005C08B7005D08823140
:101F3E009D228F3140013108CF003008CE00FF2F97
:101F4E004E0886008701403FD000413FD100500827
:101F5E008400510885001200253A031DB72FB82FB3
:101F6E00D12F4E08860087010130810741310318B9
:101F7E00810A2530F0000030F1005D08D0005008D5
:101F8E00F2008D3160258F3101304001CE000030DE
:101F9E00CF00FF2F4E0886008701013081074131A7
:101FAE000318810ACE01CF01FF2F4E08860087014C
:101FBE00403FD000413FD1005008840051088500B9
:101FCE000008D200D3015208F0005308F1005D085A
:101FDE00D4005408F2008D3160258F3140014E0837
:101FEE00860087010130810741310318810ACB2F0A
:021FFE000800D9
:020000040001F9
:04000E00ED3FE73F9C
:04001400FF3FFF3F6C
:00000001FF
